:020000040800F2
:10000000C84E0020FD0400083D0500083F0500081B
:100010004B050008570500086305000800000000B4
:100020000000000000000000000000007D02000849
:100030006F05000800000000C102000871050008FB
:100040001705000817050008170500081705000820
:100050001705000817050008170500081705000810
:100060001705000817050008170500081705000800
:1000700017050008170500081705000817050008F0
:1000800017050008170500081705000817050008E0
:1000900017050008170500081705000817050008D0
:1000A00017050008170500081705000817050008C0
:1000B00017050008176300082F63000817050008DC
:1000C00017050008170500081705000817050008A0
:1000D00017050008C35D0008FFC70008A96C0008E9
:1000E00017050008170500081705000800F002F8BA
:1000F00000F0B4F80AA090E8000C82448344AAF10E
:100100000107DA4501D100F0A9F8AFF2090EBAE80B
:100110000F0013F0010F18BFFB1A43F0010318473B
:100120004C1101006C1101000A444FF0000C10F852
:10013000013B13F0070408BF10F8014B1D1108BF65
:1001400010F8015B641E05D010F8016B641E01F805
:10015000016BF9D113F0080F1EBF10F8014BAD1C55
:100160000C1B09D16D1E58BF01F801CBFAD505E073
:1001700014F8016B01F8016B6D1EF9D59142D6D3CD
:10018000704700000023002400250026103A28BFF5
:1001900078C1FBD8520728BF30C148BF0B607047F9
:1001A0006E290DF0478070290CF0A584662910F0A7
:1001B000E081652910F0DD81672910F0DA8161297D
:1001C000AFF3008003681B0A28BF41F08001692952
:1001D0000CF0168464290CF0138475290CF010843B
:1001E0006F290DF03C8378290CF07184E9290DF01A
:1001F000D782E4290DF0D482F5290DF0D182EF29C0
:100200000DF03983F8290CF070840368DB0928BFEE
:1002100041F0800163290DF0588273290DF05D8251
:10022000E3290DF05B84F3290DF060840020704712
:100230001FB59DE803000CF051FF0DF0A1FB040079
:10024000002000210EF0EAFF401C60600020002129
:100250000EF0FAFFE0601FBD10B510BD0DF034FDCB
:100260001146FFF7E5FF07F021F90DF060FD03B43B
:10027000FFF7F2FF03BC0DF0D1FD0000224B19681F
:100280000868B0E8F00F80F30988BFF36F8F4FF074
:10029000000080F311884EF00D0E70470000000042
:1002A00006480068006880F3088862B661B6BFF34C
:1002B0004F8FBFF36F8F00DF00BF00BF08ED00E07E
:1002C000EFF30980BFF36F8F0F4B1A6820E9F00F2F
:1002D000106008B54FF0500080F31188BFF34F8FC6
:1002E000BFF36F8F01F033FD4FF0000080F31188F2
:1002F000BDE8084019680868B0E8F00F80F3098885
:10030000BFF36F8F704700BF14000020EFF305802C
:10031000704700000CB50020019000906C48006808
:1003200040F480306A49086000BF6948006800F402
:10033000003000900198401C0190009818B9019875
:10034000B0F5A06FF1D16248006800F4003010B140
:100350000120009001E0002000900098012843D186
:100360005C48006840F010005A4908600846006880
:1003700020F0030008600846006840F002000860B2
:1003800053484068524948600846406848600846FB
:10039000406840F4806048600846406820F47C1063
:1003A00048600846406840F4881048600846006885
:1003B00040F08070086000BF4548006800F00070A1
:1003C0000028F9D04248406820F0030040494860C6
:1003D0000846406840F00200486000BF3C48406862
:1003E00000F00C000828F9D10CBD10B5FFF792FF02
:1003F00010BD10B53648006840F00100344908606F
:100400000846406834490840314948600846006859
:10041000324908402E4908600846006820F48020D0
:1004200008600846406820F4FE0048604FF41F0052
:100430008860FFF7DAFF4FF000602949086010BDBF
:1004400010B5002100200022214B5B6803F00C0155
:1004500021B1042906D0082928D107E0214B224CDC
:10046000236027E0214B204C236023E0184B5B687E
:1004700003F47010164B5B6803F48032022303EB25
:10048000904022B91A4B4343174C23600DE0104BA8
:100490005B6803F4003323B1164B4343124C2360D3
:1004A00003E0124B4343104C236003E00D4B0E4C12
:1004B000236000BF00BF064B5B68C3F303130E4C01
:1004C000E15C094B1B68CB40074C236010BD00006A
:1004D00000100240002002400000FFF8FFFFF6FE7F
:1004E00008ED00E000127A0000000020001BB700B9
:1004F00000093D00808D5B00040000200948804712
:1005000009480047FEE7FEE7FEE7FEE7FEE7FEE7F5
:10051000FEE7FEE7FEE7FEE704480549054A064B0D
:1005200070470000F3030008ED000008C8460020F3
:10053000C84E0020C84A0020C84A0020704710A1B9
:100540001E4805F01CFC00BFFEE71DA11B4805F07E
:1005500016FC00BFFEE729A1184805F010FC00BFFB
:10056000FEE735A1154805F00AFC00BFFEE770471D
:1005700010B502F037F8012801D003F000F910BDE2
:100580000D0A2A2A2A2A2A2A2A2A2A2A2A2A2A2A08
:100590002A2A2A2A2A486172644661756C745F4867
:1005A000616E646C65722A2A2A2A2A2A2A2A2A2A31
:1005B0002A2A2A2A2A2A2A2A2A0D0A000038014031
:1005C0000D0A2A2A2A2A2A2A2A2A2A2A2A2A2A2AC8
:1005D0002A2A2A2A2A4D656D4D616E6167655F483A
:1005E000616E646C65722A2A2A2A2A2A2A2A2A2AF1
:1005F0002A2A2A2A2A2A2A2A2A0D0A000D0A2A2AFF
:100600002A2A2A2A2A2A2A2A2A2A2A2A2A2A2A2A4A
:100610002A4275734661756C745F48616E646C65DF
:10062000722A2A2A2A2A2A2A2A2A2A2A2A2A2A2AE2
:100630002A2A2A2A0D0A00000D0A2A2A2A2A2A2AE8
:100640002A2A2A2A2A2A2A2A2A2A2A2A2A5573615F
:1006500067654661756C745F48616E646C65722A8B
:100660002A2A2A2A2A2A2A2A2A2A2A2A2A2A2A2AEA
:100670002A2A0D0A0000000000F1080141604FF035
:10068000FF31816000F10801C1600161002101605A
:10069000704700210161704742684A6093688B602F
:1006A000936859609160086103685B1C0360704740
:1006B00010B502460B685C1C0CB9106907E002F12A
:1006C000080000E04068446824689C42FAD9446805
:1006D0004C604C68A160886041600A611468641CC9
:1006E000146010BD01460A69D1E901309860D1E972
:1006F000010358605068884201D18868506000202A
:1007000008611068401E10601068704770B505469B
:100710000E462C4634B940F21B13F6A2FAA1FE484D
:1007200005F02DFB02F0EEFFD4E90F12206801FB6B
:10073000020060600020A0632068A060E06B401EA3
:10074000226C216800FB0210E060FF2084F8440066
:1007500084F845009EB9206908B9012000E0002016
:10076000A8B904F1100001F033FE80B14FF08050C1
:10077000EA490860BFF34F8FBFF36F8F07E004F1C2
:100780001000FFF779FF04F12400FFF775FF02F076
:10079000DDFF012070BD2DE9F04106460D461746EC
:1007A0009846069C0DB9246000E02760E663256446
:1007B00001212046FFF7AAFF84F850800020A064A2
:1007C000BDE8F0812DE9F84305460E4690460DB18F
:1007D000012000E0002030B94FF4C473C5A2CAA1C3
:1007E000CD4805F0CCFA0EB9002701E005FB06F76D
:1007F00007F1540002F007FE044644B104F1540925
:1008000043464A46314628460094FFF7C4FF204637
:10081000BDE8F8832DE9F04104460F4615464FF038
:100820000008A66B206C40B9206860BB606801F0CE
:1008300037FF80460020606025E07DB93946226C94
:10084000A0680CF0EAFA216CA0680844A060D4E922
:100850000110884217D32068A06014E03946226C4A
:10086000E0680CF0DAFA216CE068401AE060216878
:10087000E068884203D2216C6068401AE060022D73
:1008800001D106B1761E701CA0634046BDE8F08120
:100890002DE9F3410D460098846C002734B940F6E9
:1008A000CE1394A298A19C4805F069FAA06BE16B65
:1008B000884201D2012000E0002030B940F6CF1379
:1008C0008CA291A1944805F05AFAA06BE16B884282
:1008D0001BD294F945602A4669462046FFF79AFFE5
:1008E0000746701C60B9606A08B9012000E000206A
:1008F00050B904F1240001F06BFD28B1012703E099
:10090000701C40B284F8450000BF3846BDE8FC8149
:1009100070B5044602F0F6FE94F945501AE0A06C5A
:1009200038B100212046FFF7B3FF88B101F048FE3F
:100930000EE0606A08B9012000E0002038B904F137
:10094000240001F045FD18B101F03AFE00E003E09B
:10095000681E45B2002DE2DC00BFFF2084F8450090
:1009600002F0F4FE02F0CEFE94F9445010E020694B
:1009700008B9012000E0002048B904F1100001F09E
:1009800027FD08B101F01CFE681E45B200E001E041
:10099000002DECDC00BFFF2084F8440002F0D6FEFE
:1009A00070BD70B5054602F0ADFEA86BE96B8842DC
:1009B00001D1012400E0002402F0C8FE204670BDF1
:1009C0002DE9FF4383B0064688461D464FF00009D7
:1009D000344634B940F2D92346A24BA14E4805F023
:1009E000CEF9B8F1000F01D1206C08B9012000E068
:1009F000002030B940F2DA233EA243A1464805F078
:100A0000BEF9022D02D1E06B012801D1012000E0E6
:100A1000002030B940F2DB2336A23BA13E4805F06E
:100A2000AEF901F0DFFD08B9059808B9012000E032
:100A3000002030B940F2DE232EA233A1364805F063
:100A40009EF900BF02F05EFEA06BE16B884201D30D
:100A5000022D38D12A4641462046FFF7DBFE0746E5
:100A6000A06C68B129462046FFF712FF28B34FF06B
:100A700080502A490860BFF34F8FBFF36F8F1CE08F
:100A8000606A08B9012000E0002068B904F1240080
:100A900001F09EFC88B14FF0805020490860BFF300
:100AA0004F8FBFF36F8F08E03FB14FF080501B496D
:100AB0000860BFF34F8FBFF36F8F02F047FE012036
:100AC00007B0BDE8F083059818B902F03FFE00209A
:100AD000F6E7B9F1000F04D101A801F000FD4FF0D5
:100AE000010902F033FE00F0A2FF02F00BFE94F9C0
:100AF000440015E04672656552544F535C7175654C
:100B000075652E63000000004572726F723A25739E
:100B10002C25640D0A0000000038014004ED00E0BF
:100B2000401C10B9002084F8440094F94500401C92
:100B300010B9002084F8450002F008FE05A901A8BC
:100B400001F0E0FCF8B92046FFF72BFFA8B104F153
:100B50001000059901F0DAFB2046FFF7D9FE00F0FE
:100B6000BAFE00287FF46EAF4FF08050FE49086057
:100B7000BFF34F8FBFF36F8F64E72046FFF7C8FEC8
:100B800000F0A9FE5EE72046FFF7C2FE00F0A3FEDC
:100B9000002095E710B504464CB10020606020604D
:100BA000E06000231A4619462046FFF709FF10BDF2
:100BB0002DE9F041044601260027224600210120AC
:100BC000FFF700FE05462846FFF7E4FF2846BDE88C
:100BD000F08170B50646344644B940F24123AFF285
:100BE000EC02AFF2DC01E14805F0C9F801F0F7FCD6
:100BF000616888420CD1E068401EE060E06828B976
:100C000000231A4619462046FFF7DAFE012500E0C8
:100C10000025284670BD70B5054602F073FDA86B2F
:100C200008B9012400E0002402F090FD204670BDC8
:100C300070B504460D46206C70B1216CE068084424
:100C4000E0606168E068884201D32068E06028467F
:100C5000226CE1680CF0E1F870BD2DE9FF4782B02D
:100C600005460E461F464FF0000A2C4644B940F296
:100C7000DC43AFF28012AFF27011BC4805F07FF890
:100C80000EB9206C08B9012000E0002040B940F204
:100C9000DD43AFF2A012AFF29011B44805F06FF847
:100CA00001F0A0FC08B9049808B9012000E0002078
:100CB00040B94FF49C63AFF2C412AFF2B411AB4829
:100CC00005F05DF800BF02F01DFDD4F83890B9F1D1
:100CD000000F3DD0D4F80C8031462046FFF7A8FF26
:100CE000DFB9A9F10100A063206810B901F0B9FDD6
:100CF0006060206908B9012000E0002010BB04F109
:100D0000100001F065FBE8B14FF080509649086093
:100D1000BFF34F8FBFF36F8F14E0C4F80C80606A8D
:100D200008B9012000E0002060B904F1240001F0BE
:100D30004FFB38B14FF080508B490860BFF34F8FA5
:100D4000BFF36F8F02F002FD012006B0BDE8F0870F
:100D5000049818B902F0FAFC0020F6E7BAF1000F87
:100D600004D1684601F0BBFB4FF0010A02F0EEFC33
:100D700000F05DFE02F0C6FC94F94400401C10B97E
:100D8000002084F8440094F94500401C10B900206C
:100D900084F8450002F0DAFC04A9684601F0B2FBD1
:100DA00040BB2046FFF737FFF0B1206830B902F0B2
:100DB000A9FC606801F022FC02F0C8FC04F12400E8
:100DC000049901F0A3FA2046FFF7A2FD00F083FD8D
:100DD00000287FF478AF4FF0805063490860BFF37C
:100DE0004F8FBFF36F8F6EE72046FFF791FD00F046
:100DF00072FD68E72046FFF78BFD00F06CFD204692
:100E0000FFF709FF0028EED000209EE72DE9F04112
:100E100006460F46344644B94FF41E73AFF22C32E7
:100E2000AFF21C31514804F0AAFF01F0D8FB616811
:100E3000884204D1E068401CE06001250AE00023FC
:100E40003A4619462046FFF708FF054615B1E06807
:100E5000401CE0602846BDE8F08170B505460E46AE
:100E60000DB1012000E0002040B940F2BD23AFF2F7
:100E70007C32AFF26C313D4804F081FFAE4201D8C4
:100E8000012000E0002040B940F2BE23AFF29C32C6
:100E9000AFF28C31354804F072FF0222002128465F
:100EA000FFF790FC044604B1A663204670BD2DE90F
:100EB000F05F80468A4615461E46444644B940F2D5
:100EC0009F33AFF2D032AFF2C031284804F057FF61
:100ED000BAF1000F01D1206C08B9012000E0002018
:100EE00040B94FF46873AFF2F432AFF2E4311F4807
:100EF00004F045FF022E02D1E06B012801D1012050
:100F000000E0002040B940F2A133AFF21842AFF246
:100F10000841164804F033FF02F049FC00BF50219D
:100F2000EFF3118081F31188BFF34F8FBFF36F8F01
:100F300000BF0746A06BE16B884201D3022E30D17F
:100F400094F945B0324651462046FFF763FC0BF159
:100F50000100F0B9A06C68B131462046FFF798FC5B
:100F6000E0B1DDB1012003E004ED00E00038014014
:100F7000286013E0606A08B9012000E0002068B929
:100F800004F1240001F024FA40B13DB101202860B1
:100F900004E00BF1010040B284F845004FF0010974
:100FA00001E04FF0000900BF87F3118800BF4846F9
:100FB000BDE8F09F2DE9F04707460D463C4644B991
:100FC00040F23C43AFF2D442AFF2C441FC4804F0DB
:100FD000D6FE206C08B9012000E0002040B94FF493
:100FE0008863AFF2F042AFF2E041F54804F0C7FE8B
:100FF000206808B9606808B9012000E0002040B905
:1010000040F24543AFF21452AFF20451EC4804F001
:10101000B6FE02F0CCFB00BF5021EFF3118081F34C
:101020001188BFF34F8FBFF36F8F00BF0646D4F810
:101030003890E06B484529D994F945A009F10100A1
:10104000A0630AF10100C8B9A06C40B1002120469C
:10105000FFF71EFCB8B1B5B10120286013E0606A4B
:1010600008B9012000E0002068B904F1240001F073
:10107000AFF940B13DB10120286004E00AF1010060
:1010800040B284F845004FF0010801E04FF000083D
:1010900000BF86F3118800BF4046BDE8F0872DE908
:1010A000F05F064689461746344644B94FF4B463A8
:1010B000AFF2C052AFF2B051C14804F060FEB9F1D6
:1010C000000F01D1206C08B9012000E0002040B9D8
:1010D00040F2A153AFF2E452AFF2D451B84804F059
:1010E0004EFE02F064FB00BF5021EFF3118081F34C
:1010F0001188BFF34F8FBFF36F8F00BF0546D4F841
:1011000038A0BAF1000F22D094F944B049462046E5
:10111000FFF78EFDAAF10100A0630BF1010070B989
:10112000206908B9012000E0002068B904F110002E
:1011300001F04EF940B13FB10120386004E00BF1FD
:10114000010040B284F844004FF0010801E04FF084
:10115000000800BF85F3118800BF4046BDE8F09F3E
:101160002DE9F04706468846344644B940F2FC5320
:10117000AFF28062AFF27061914804F000FEB8F106
:10118000000F01D1206C08B9012000E0002040B917
:1011900040F2FD53AFF2A462AFF29461884804F0CC
:1011A000EEFD206C08B1012000E0002040B940F2C3
:1011B000FE53AFF2C062AFF2B061814804F0DFFDD0
:1011C00002F0F5FA00BF5021EFF3118081F311888E
:1011D000BFF34F8FBFF36F8F00BF0546A06B48B1C1
:1011E000D4F80C9041462046FFF722FDC4F80C903D
:1011F000012700E0002700BF85F3118800BF3846B3
:10120000BDE8F08770B5044644B940F22F63AFF2F1
:101210001C72AFF20C716A4804F0B1FD02F072FA70
:10122000A56B02F093FA284670BD70B504462546BA
:1012300045B940F24163AFF24472AFF23471604895
:1012400004F09DFD02F05EFAD5E90E10461A02F098
:101250007DFA304670BD70B5044644B940F2516322
:10126000AFF27072AFF26071554804F088FDA56B63
:10127000284670BD014600200EE0524A02EBC00233
:1012800052688A4207D100224E4B43F8302003EBCC
:10129000C0035A6002E0401C0828EED300BF70472C
:1012A00070B50446254645B940F25D63AFF2BC72A5
:1012B000AFF2AC71424804F062FD2846FFF7DAFF56
:1012C000284602F026F970BD0146C86C7047C1641B
:1012D0007047014691F85000704770B5054645B912
:1012E00040F29373AFF2F472AFF2E471344804F059
:1012F00046FDA86B08B9012400E00024204670BD1B
:1013000070B5044644B940F2BA73AFF61802AFF6AE
:1013100008012B4804F033FDA06BE16B884201D13A
:10132000012500E00025284670BD024600200BE0A4
:10133000244B53F8303033B9224B43F8301003EBD1
:10134000C0035A6002E0401C0828F1D300BF704778
:101350000246002000210AE01A4B03EBC1035B6840
:10136000934203D1174B53F8310002E0491C08297E
:10137000F2D300BF70472DE9F04105460E461746EF
:101380002C4602F0BFF994F94400401C10B900202B
:1013900084F8440094F94500401C10B9002084F8FA
:1013A000450002F0D3F9A06B28B93A46314604F162
:1013B000240000F0F1FF2046FFF7AAFABDE8F08113
:1013C000003801403C02002070B504460022042190
:1013D0002046FFF7F7F90546284670BD70B504466C
:1013E0000E4602F08FF9A06C08B1002505E0A06B55
:1013F00008B1002501E0A664012502F0A7F92846FE
:1014000070BD2DE9F04105460F462E46B06CB8423E
:1014100001D000240AE0B06B08B1002406E002F01D
:1014200071F90020B06402F091F901242046BDE872
:10143000F08138B505460C46002000900023224676
:1014400069462846FFF709FC009838BD38B50446C0
:1014500000200090002269462046FFF720FE0098F9
:1014600038BD000010B5002407E004EB8401F64A03
:1014700002EB8100FFF700F9641C182CF5D3F34848
:10148000FFF7FAF8F248FFF7F7F8F248FFF7F4F839
:10149000F148FFF7F1F8F148FFF7EEF8EB48F049B3
:1014A0000860EB48EF49086010BD10B5044602F033
:1014B00029F9ED480068401CEB490860EB480068DA
:1014C00040B9EA4804600846006801280DD1FFF7DA
:1014D000C9FF0AE0E648006838B9E4480068C06A15
:1014E000E16A884201D8E1480460E2480068401C93
:1014F000E049086008460068606494F82C100120F8
:101500008840DD4909680843DB490860E16A01EB6E
:101510008101CD4A02EB8100211DFFF7BDF802F0E9
:1015200015F9D348006868B1D0480068C06AE16A1C
:10153000884207D24FF08050D0490860BFF34F8FE8
:10154000BFF36F8F10BD2DE9F05F82460F469046C6
:101550009B460A9E0C9C4FEA8801A522206B0BF04B
:1015600015FDA8F10100216B01EB800929F00709A5
:1015700009F0070008B9012000E0002030B940F26E
:101580002B33BFA2C3A1C74804F0F9FB002507E035
:10159000795D04F134004155785D00B902E06D1CBD
:1015A000102DF5D300BF002143200155182E00D384
:1015B0001726E662E66400202065201DFFF769F823
:1015C00004F11800FFF765F82461C6F11800A06166
:1015D00064620020606584F858005A4651464846C7
:1015E00002F01DF820600B9808B10B980460BDE86C
:1015F000F09F2DE9FF4F85B0804689461746DDE90B
:1016000012ABB80001F0FFFE064656B15C2001F0B7
:10161000FAFE04460CB1266304E0304601F079FF7F
:1016200000E000247CB10020CDE900ABCDE9024010
:101630003A4649464046089BFFF785FF2046FFF79C
:1016400034FF012501E04FF0FF35284609B0BDE821
:10165000F08F83490968096809B9012100E0002178
:1016600021B14FF0FF31904A116006E07C490968D2
:10167000C968C8688C4A41681160704710B5044653
:10168000206B01F046FF204601F043FF10BD70B50E
:10169000054602F037F815B97448006800E028469E
:1016A0000446201DFFF71EF878B9E06A00EB8000C1
:1016B000654951F8200040B994F82C100120884069
:1016C0006D49096881436C480160A06A18B104F152
:1016D0001800FFF707F867480068401C6549086074
:1016E00062480068844209D1211D5B48FEF7D4FF9F
:1016F0006E480068401C6D49086009E05A4800685F
:10170000401E594908602046FFF7B8FFFFF7A1FFC8
:1017100002F01CF856480068C8B15448006884427A
:1017200015D16348006808B9012000E0002030B9F5
:1017300040F2654352A257A15A4804F020FB4FF0F3
:1017400080504E490860BFF34F8FBFF36F8F70BD5D
:101750002DE9F0414FF0000855480068002872D18B
:1017600054480068451C53480560F5B93C4800687A
:10177000006808B9012000E0002030B940F6D91314
:101780003FA244A1474804F0FAFA354807683548B3
:101790000068334908603348076047480068401CC8
:1017A00045490860FFF755FF00BF3F480068854284
:1017B0003CD300BF2A480068006808B9012000E057
:1017C000002020B14FF0FF30374908602DE0244859
:1017D0000068C068C4686668B54202D232480660D4
:1017E00023E0201DFEF77EFFA06A18B104F1180067
:1017F000FEF778FF94F82C10012088401E490968F4
:1018000008431D490860E16A01EB81010E4A02EBC1
:101810008100211DFEF740FF1449E06A0968C96A8A
:101820008842C7D34FF00108C4E700BF0F480068E3
:10183000C06A00EB8000044951F82000012801D95A
:101840004FF001083FE039E07C0200205C040020FA
:10185000700400208404002098040020AC040020C0
:10186000180000201C00002024000020140000208C
:1018700030000020400000202C00002004ED00E09B
:101880004672656552544F535C7461736B732E637B
:10189000000000004572726F723A25732C25640DAA
:1018A0000A00000000380140440000202000002011
:1018B0004C000020280000203C000020FC4800686C
:1018C000401CFB490860FB48006808B14FF0010864
:1018D0004046BDE8F08170B500240026F648006857
:1018E00040B94FF4FD63AFF26802AFF25801F3481C
:1018F00004F045FA01F006FFEF480068401EEE498B
:1019000008600846006800284FD1ED4800680028AC
:101910004BD024E0EB48C068C46804F11800FEF71F
:10192000E1FE201DFEF7DEFE94F82C100120884019
:10193000E54909680843E4490860E16A01EB81016F
:10194000E24A02EB8100211DFEF7A6FEE049E06AB3
:101950000968C96A884202D30120D6490860D9487B
:10196000006808B9012000E000200028D2D00CB1A6
:10197000FFF76FFECE48056865B100BFFFF7E8FED0
:1019800010B10120CB4908606D1E002DF6D100205A
:10199000C7490860C748006838B101263007CD49FB
:1019A0000860BFF34F8FBFF36F8F01F0CFFE30465B
:1019B00070BD2DE9F04105460E46C7480768C4488A
:1019C0000068001DFEF78EFE50B9C148006890F80F
:1019D0002C1001208840BC4909688143BA48016045
:1019E000681C38B936B1BA480168091DBB48FEF712
:1019F00053FE1AE07C19B64800684460BC4207D226
:101A0000B3480168091DB6480068FEF751FE0CE0B6
:101A1000AF480168091DB3480068FEF749FEB248A7
:101A20000068844201D2B0480460BDE8F081A24859
:101A30000068401CA049086070472DE9F047044643
:101A40000F464FF0000944B940F27943AFF2D0128B
:101A5000AFF2C011994804F092F90FB1012000E0F3
:101A6000002040B940F27A43AFF2EC12AFF2DC1141
:101A7000924804F084F99048006808B9012000E019
:101A8000002040B940F27B43AFF20C22AFF2FC11D0
:101A90008A4804F074F9FFF7CAFF8F480668206887
:101AA000C5192068B04207D92068A8420BD9B542B1
:101AB00009D94FF0010906E02068A84201D8B542D3
:101AC00001D94FF001092560B9F1000F03D0A81B1F
:101AD0000021FFF76EFFFFF7FEFE8046B8F1000F12
:101AE00007D14FF080507B490860BFF34F8FBFF3A1
:101AF0006F8FBDE8F08770B504460025C4B16E480D
:101B0000006808B9012000E0002040B940F2CF434E
:101B1000AFF29422AFF28421684804F030F9FFF765
:101B200086FF00212046FFF744FFFFF7D4FE05465D
:101B30003DB94FF0805067490860BFF34F8FBFF346
:101B40006F8F70BD2DE9F04107463E4646B940F221
:101B5000FB43AFF2D422AFF2C421584804F00FF98E
:101B60005B480068864201D100241EE001F0CAFDF6
:101B7000756901F0EBFD5B480068854203D0584869
:101B80000068854201D102240FE05448854205D106
:101B9000B06A08B9032408E0022406E053488542ED
:101BA00000D00DB9042400E001242046BDE8F081F6
:101BB00070B5044601F0A6FD14B94548006800E080
:101BC00020460646F56A01F0C1FD284670BD2DE9A4
:101BD000F041054601F0EBFD00BF5021EFF311800D
:101BE00081F31188BFF34F8FBFF36F8F00BF04469F
:101BF00015B93748006800E028460746FE6A00BF6E
:101C000084F3118800BF3046BDE8F0812DE9F0472C
:101C100080460D464FF00009182D01D2012000E04A
:101C2000002040B94FF4B063AFF2AC32AFF29C3158
:101C3000224804F0A4F8182D00D3172501F062FD06
:101C4000B8F1000F02D12248006800E04046044687
:101C5000E66CAE4277D0B5420BD91D48006884428D
:101C60000DD01B480068C06AA84208D84FF001098F
:101C700005E017480068844201D14FF00109E76A86
:101C8000E16AE06C884200D1E562E564A06900F099
:101C9000004010B9C5F11800A06107EB87010B4A9D
:101CA00002EB81016069884222D1012021E000001D
:101CB00034000020380000204C0000200038014093
:101CC00024000020840400202C0000207C0200203E
:101CD0001400002004ED00E028000020AC040020E7
:101CE0001C00002018000020440000209804002060
:101CF0000020E0B1201DFEF7F5FC30B90120B8400E
:101D0000FB4909688143FA48016094F82C100120CE
:101D10008840F74909680843F5490860E16A01EB22
:101D20008101F44A02EB8100211DFEF7B5FCB9F1F7
:101D3000000F07D04FF08050EF490860BFF34F8F7E
:101D4000BFF36F8F00BF01F001FDBDE8F08710B554
:101D5000EA48006818B10120E949086030E0002035
:101D6000E7490860E2480068B0FA80F0C0F11F045B
:101D700004EB8400DF4951F8200008B1012000E0A5
:101D8000002040B940F6F623AFF20C52AFF2FC410E
:101D9000DC4803F0F4FF04EB8401D64A02EB810037
:101DA00041684968416000F1080142688A4202D1F5
:101DB0004168496841604168C968D34A116000BF01
:101DC00010BD70B5054601F09DFC15B9CE48006800
:101DD00000E028460446201DFEF784FC78B9E06A3E
:101DE00000EB8000C34951F8200040B994F82C1052
:101DF00001208840BE4909688143BD480160A06A4E
:101E000018B104F11800FEF76DFC211DBF48FEF764
:101E100043FC01F09BFCBE48006828B101F072FC55
:101E2000FFF717FC01F092FCB7480068844227D105
:101E3000B7480068C0B1B148006808B9012000E0A7
:101E4000002040B940F25763AFF2CC52AFF2BC5120
:101E5000AC4803F094FF4FF08050A7490860BFF3EF
:101E60004F8FBFF36F8F0BE0A8480068A94909683E
:101E7000884203D10020A449086001E0FFF767FF12
:101E800070BD70B5054600262C4645B940F2816309
:101E9000AFF21462AFF204619A4803F070FF9B49FD
:101EA0006069884201D1012000E0002070B19A49A8
:101EB000A06A884201D1012000E0002030B9A06A68
:101EC00008B9012000E0002000B10126304670BDB5
:101ED00070B505462C4645B940F2AB63AFF260627F
:101EE000AFF25061874803F04AFF74B38648006838
:101EF00084422AD001F006FC2046FFF7C2FF10B34F
:101F0000201DFEF7EFFB94F82C1001208840784943
:101F10000968084376490860E16A01EB8101754A66
:101F200002EB8100211DFEF7B7FB7749E06A0968E3
:101F3000C96A884207D34FF080506F490860BFF3E9
:101F40004F8FBFF36F8F01F001FC70BD2DE9F041A1
:101F500006460027344646B940F2E263AFF2E0623B
:101F6000AFF2D061674803F00AFF01F020FC00BF28
:101F70005021EFF3118081F31188BFF34F8FBFF32E
:101F80006F8F00BF05462046FFF77BFF20B35B48FD
:101F90000068E0B95C49E06A0968C96A884200D310
:101FA0000127201DFEF79EFB94F82C10012088408D
:101FB0004F49096808434E490860E16A01EB810115
:101FC0004C4A02EB8100211DFEF766FB04E004F1A0
:101FD00018015148FEF760FB00BF85F3118800BF70
:101FE0003846BDE8F08170B523E0FFF720FD4B488F
:101FF000006808B9012000E000200546FFF76BFCEF
:10200000BDB901F07FFB4548C068C468201DFEF7DC
:1020100069FB40480068401E3E490860404800682F
:10202000401E3F49086001F091FB2046FFF726FB68
:1020300000BF3B4800680028D7D170BD00BFFFF744
:10204000D2FF2C4800680128F9D94FF080502A4966
:102050000860BFF34F8FBFF36F8FF0E71CB53148B7
:1020600000210B468222CDE900102FA13048FFF756
:10207000C0FA0446012C02D101F014F80446012CE8
:1020800015D100BF502080F31188BFF34F8FBFF3ED
:102090006F8F00BF4FF0FF302649086001201C49B8
:1020A000086000202449086001F0D4FA0EE0601CAA
:1020B00008B1012000E0002040B940F28473AFF67F
:1020C0004002AFF630010F4803F059FE1CBD10B5B9
:1020D00000BF502080F31188BFF34F8FBFF36F8F85
:1020E00000BF00200A49086001F0FAFA10BD0000A4
:1020F0002C0000207C02002004ED00E04C000020B9
:10210000380000200038014014000020AC040020FA
:1021100030000020240000208404002098040020C7
:10212000200000204800002049444C4500000000E9
:102130003D2000084400002028000020FE490868D7
:10214000704770B501F033FB0025FB48046820465A
:1021500070BDFA480068704770B5044614B9F84875
:10216000006800E02046054645B940F68C03AFF60E
:10217000F002AFF6E001F34803F001FE05F1340090
:1021800070BD0246002101E0521C491C1078A528B0
:10219000FAD0890888B270472DE9F04107460C460D
:1021A00090461E4617B9E648006800E038460546E6
:1021B000256005F134006060E86A2061286BE06109
:1021C000686CA060207B032807D1FFF730FCA86A69
:1021D00008B102202073FFF77EFBE86C60610020ED
:1021E000A061052E01D0267303E03846FFF7AAFC54
:1021F0002073B8F1000F04D0286BFFF7C2FF2084D2
:1022000001E000202084BDE8F0812DE9F047074679
:102210000C4690460026206848B32046416849682D
:10222000416000F1080142688A4202D14168496870
:1022300041604168D1F80C9000BF20464168496870
:10224000416000F1080142688A4202D14168496850
:1022500041604168CD6806EBC60007EB800143464C
:1022600001222846FFF798FF761C4D45E5D1304600
:10227000BDE8F0872DE9F041054688461646002462
:102280001827FFF7D4FBAD480068804539D300BF5D
:102290007F1E07EB8702AC4B03EB820104EBC40209
:1022A00005EB82000122FFF7B0FF0444002FEFD1BD
:1022B00004EBC40105EB81000222A4490968FFF781
:1022C000A4FF044404EBC40105EB81000222A049F1
:1022D0000968FFF79AFF044404EBC40105EB810091
:1022E00004229C49FFF791FF044404EBC40105EB71
:1022F000810003229849FFF788FF04440EB10020B3
:102300003060FFF7E8FA2046BDE8F08170B504467A
:102310000D4644B940F60633AFF69C22AFF68C2149
:10232000884803F02CFD8648016818312046FEF7E6
:10233000BFF901212846FFF73CFB70BD70B504468C
:102340000D46164644B940F61733AFF6CC22AFF629
:10235000BC217C4803F013FD8048006808B10120CF
:1023600000E0002040B940F61B33AFF6EC22AFF698
:10237000DC21744803F003FD45F000407049096812
:1023800088616F48016818312046FEF785F9012100
:102390003046FFF70EFB70BD70B505460E4614467D
:1023A00045B940F63133AFF62832AFF618316548FB
:1023B00003F0E5FC6248016818312846FEF76CF925
:1023C0000CB14FF0FF3621463046FFF7F2FA70BDF0
:1023D00070B50646F068C46844B940F66133AFF69C
:1023E0006032AFF65031574803F0C9FC04F11800D1
:1023F000FEF778F959480068A8B9201DFEF772F970
:1024000094F82C1001208840554909680843544924
:102410000860E16A01EB81014B4A02EB8100211D5A
:10242000FEF73AF904E004F118014E48FEF734F9DA
:102430004349E06A0968C96A884204D90125012034
:102440004949086000E00025284670BD2DE9F041AB
:1024500005460F464148006808B1012000E0002011
:1024600040B940F69933AFF6E832AFF6D831354887
:1024700003F085FC47F000402860EC6844B940F662
:10248000A133AFF60442AFF6F4312E4803F077FCE7
:102490002846FEF727F9201DFEF724F994F82C10A2
:1024A000012088402E49096808432D490860E16AE7
:1024B00001EB8101244A02EB8100211DFEF7ECF8BB
:1024C0001F49E06A0968C96A884204D901260120C7
:1024D0002549086000E000263046BDE8F08110B5CF
:1024E000044644B940F6C133AFF66C42AFF65C41E6
:1024F000144803F044FC1D48006820600E48006842
:10250000606010BD2DE9F04104460D4644B940F627
:10251000CB33AFF69442AFF684410A4803F02FFC68
:1025200045B940F6CC33AFF6A842AFF6984105481E
:1025300003F025FC1CE000002800002024000020FF
:1025400014000020003801407C0200201800002008
:102550001C00002098040020AC0400204C00002047
:102560002C00002084040020380000203C000020C3
:1025700001F0C8F8F84807682868401C08B9002628
:1025800019E0F64920680968884204D06068B842BA
:1025900001D801260FE06068381A2968884209D2FC
:1025A00028686168791A401A28602046FFF797FF6B
:1025B000002600E0012601F0C9F83046BDE8F081B0
:1025C0000120E74908607047014611B10A46906C46
:1025D00000E00020704708B1024691647047E1496D
:1025E00008687047E049096809B9012005E0DF493A
:1025F000096809B9022000E00020704770B505465F
:102600002C46002D4BD0D749E06A0968C96A884238
:1026100045D2A06900F0004028B9D2480068C06ADD
:10262000C0F11800A061E16A01EB8101D04A02EB20
:1026300081016069884201D1012000E0002050B38F
:10264000201DFEF74FF878B9E06A00EB8000C8491A
:1026500051F8200040B994F82C1001208840C54959
:1026600009688143C3480160BE480068C06AE062EF
:1026700094F82C1001208840BE4909680843BD49E0
:102680000860E16A01EB8101B94A02EB8100211D7A
:10269000FEF702F803E0B3480068C06AE06270BD6C
:1026A00070B505462C460026002D51D0AD48006877
:1026B000844201D1012000E0002040B940F6C76308
:1026C000AFF64462AFF63461AB4803F058FB206DBF
:1026D00040B940F6C963AFF65862AFF64861A64804
:1026E00003F04DFB206D401E2065E16CE06A8842DE
:1026F0002ED0206D60BB201DFDF7F4FF78B9E06A95
:1027000000EB80009A4951F8200040B994F82C1051
:102710000120884097490968814396480160E06C30
:10272000E062E06AC0F11800A06194F82C1001206A
:1027300088409049096808438E490860E16A01EBC6
:1027400081018B4A02EB8100211DFDF7A5FF0126C7
:10275000304670BD70B505460E46314628460AF033
:10276000C2FA28460AF0E3FA044602E0202028557F
:10277000641C0F2CFAD300202855281970BD7FB592
:102780000546002028707D48006803907B49096851
:1027900001EBC101880000F036FE0446002C53D046
:1027A000002220460399FFF765FD03900020029068
:1027B00043E0029800EBC00004EB8000007B01289E
:1027C00006D0022806D0032806D0042808D105E048
:1027D000522607E0422605E0532603E0442601E0A6
:1027E000002600BF00BF029800EBC00004EB800091
:1027F00041682846FFF7AEFF0546029800EBC0008F
:1028000004EB80008068029901EBC10104EB8101B7
:10281000098CCDE90010029800EBC00004EB8000A9
:10282000324657A1036928460AF084F828460AF080
:102830007EFA05440298401C0290DDE902018842BC
:10284000B7D3204600F065FE7FBD46490968886918
:1028500044490968C96AC1F11801424A1268916184
:1028600070474048006830B13E49096801F15000A6
:10287000096D491C01603B480068704770B5064609
:102880000D4600F03FFF37480068406D88B90120D1
:102890003449096881F858005DB101212846FFF7E5
:1028A00088F84FF080503A490860BFF34F8FBFF36C
:1028B0006F8F00F04BFF00F025FF2A480068446D41
:1028C0004CB126B1002027490968486503E0601E25
:1028D00024490968486500202249096881F85800A0
:1028E00000F034FF204670BD2DE9F04107468846D0
:1028F00014461D4600F006FF1A48006890F858007C
:10290000022818D01749096801F15400496DB943EC
:10291000016001201349096881F858005DB1012167
:102920002846FFF746F84FF0805019490860BFF37A
:102930004F8FBFF36F8F00F009FF00F0E3FE1CB173
:1029400008480068406D20600648006890F858000C
:1029500001281FD1002626E0280000203C0000208E
:102960003800002014000020300000204C0000201F
:102970007C0200202C0000200038014024000020B0
:102980000925630925750925750925750D0A0000B6
:1029900004ED00E0C949096801F15400496D21EADC
:1029A0000801016001260020C449096881F8580027
:1029B00000F0CCFE3046BDE8F0812DE9F047064638
:1029C0000D46174698464FF0010A3EB941F2FD0305
:1029D000BB4A02F11401BB4803F0D1F9344600F0C0
:1029E00091FEB8F1000F02D0606DC8F8000094F8B5
:1029F0005890022084F85800052F17D2DFE807F01E
:102A00001503070B0D00606D284360650EE0606DD7
:102A1000401C60650AE0656508E0B9F1020F01D06D
:102A2000656501E04FF0000A00E000BF00BFB9F1AA
:102A3000010F30D1201DFDF755FE94F82C10012018
:102A40008840A149096808439F490860E16A01EB91
:102A500081019E4A02EB8100211DFDF71DFEA06A47
:102A600008B9012000E0002038B941F23513944A3A
:102A700002F11401934803F082F99049E06A096871
:102A8000C96A884207D94FF0805091490860BFF366
:102A90004F8FBFF36F8F00F059FE5046BDE8F087AF
:102AA0002DE9F84F07460E4690469946DDF828B0C6
:102AB000012000903FB941F26813814A02F11401EC
:102AC000804803F05CF900F072FE3C4600BF5021E4
:102AD000EFF3118081F31188BFF34F8FBFF36F8F36
:102AE00000BF0546B9F1000F02D0606DC9F80000C3
:102AF00094F858A0022084F85800B8F1050F17D2B6
:102B0000DFE808F01503070B0D00606D30436065CA
:102B10000EE0606D401C60650AE0666508E0BAF191
:102B2000020F01D0666501E00020009000E000BFC8
:102B300000BFBAF1010F3BD1A06A08B9012000E043
:102B4000002038B941F2AF135D4A02F114015D482B
:102B500003F015F95F480068A8B9201DFDF7C2FD14
:102B600094F82C10012088405749096808435649B9
:102B70000860E16A01EB8101544A02EB8100211DEA
:102B8000FDF78AFD04E004F118015348FDF784FDC8
:102B90004A49E06A0968C96A884209D9BBF1000F4D
:102BA00003D00120CBF8000002E001204B4908606F
:102BB00000BF85F3118800BF0098BDE8F88F2DE9AC
:102BC000F04105460F463DB941F2E3133C4A02F19C
:102BD00014013C4803F0D3F800F0E9FD2C4600BF97
:102BE0005021EFF3118081F31188BFF34F8FBFF3B2
:102BF0006F8F00BF064694F85880022084F8580072
:102C0000606D401C6065B8F1010F38D1A06A08B949
:102C1000012000E0002038B941F20923284A02F1DE
:102C20001401284803F0ABF82A480068A8B9201D11
:102C3000FDF758FD94F82C100120884022490968BE
:102C4000084321490860E16A01EB81011F4A02EB58
:102C50008100211DFDF720FD04E004F118011E484C
:102C6000FDF71AFD1549E06A0968C96A884206D964
:102C700017B10120386002E001201849086000BF48
:102C800086F3118800BFBDE8F08170B5054615B91F
:102C90000A48006800E02846064600F033FD96F832
:102CA0005800022804D1002086F85800012400E0D2
:102CB000002400F04BFD204670BD000014000020F1
:102CC00080180008003801402C0000207C02002001
:102CD00004ED00E04C0000208404002038000020B7
:102CE0002DE9F04104460D4616461F464FF00008F8
:102CF00065602461B5420CD8F01BA169884202D3FB
:102D00004FF0010811E0211DFA480068FDF7D0FCE2
:102D10000BE0BE4204D2BD4202D34FF0010804E0F2
:102D2000211DF5480068FDF7C3FC4046BDE8F08171
:102D30002DE9FF4704460D4616461F46DDF8308054
:102D40004FF0000934B94FF4D373ECA2F0A1F4486A
:102D500003F015F8F348006810B30095019602944B
:102D6000062D15DAFFF73EFC022808D10023424663
:102D70006946EC480068FDF723FE814610E0002319
:102D80001A466946E7480068FDF71AFE814607E0E3
:102D900000233A466946E3480068FEF788F8814612
:102DA000484604B0BDE8F0872DE9F8432EE0D2484C
:102DB0000068C0680568D0480068C068C468201D05
:102DC000FDF790FC2046616A8847E06901281DD123
:102DD000A0694619AE4207D966602461211DC64824
:102DE0000068FDF765FC11E0002003462A46014615
:102DF00000902046FFF79CFF074637B940F2923318
:102E0000BEA2C3A1C64802F0BAFF00BFBA4800681C
:102E1000006808B9012000E000200028C7D0B648AB
:102E2000D0F80080B3480068B3490860B148C0F8E2
:102E30000080BDE8F88370B50446FFF77FF90546CA
:102E4000B9480068854204D2FFF7AEFF0120206038
:102E500001E000202060B4480560284670BDF0B550
:102E600087B073E0039800280DDA04AE36B940F25B
:102E7000E723A2A2A6A1AA4802F081FFD6E900207A
:102E8000B168904700BF039800285FDB059C60692C
:102E900008B9012000E0002010B9201DFDF722FC38
:102EA00002A8FFF7C8FF054603980A284CD2DFE8BE
:102EB00000F00905072D2F4706082E3000BF00BF80
:102EC00000BF00BF0498A269811803462A46204625
:102ED000FFF706FFC8B12046616A8847E06901280C
:102EE00013D1002000900498A169421800231946CC
:102EF0002046FFF71DFF074637B940F221337FA276
:102F000083A1874802F03BFF00BF1EE000BF1CE02A
:102F100000BF0498A061A06908B1012000E0002072
:102F200030B94FF44E7375A279A17D4802F027FFA6
:102F3000A06941192B462A462046FFF7D1FE04E03E
:102F4000204600F0E6FA00E000BF00BF00231A466A
:102F500003A974480068FDF780FE002882D107B0FD
:102F6000F0BDF8B505460F4663480068C068C46800
:102F7000201DFDF7B7FBE069012819D1A0694119AF
:102F80002B463A462046FFF7ABFE88B100200346A9
:102F90002A46014600902046FFF7CAFE064636B98B
:102FA0004FF4027355A25AA15D4802F0E8FE00BF3B
:102FB0002046616A8847F8BDF8B505460C46FEF71D
:102FC00036FD6846FFF737FF0646009820BB44B938
:102FD000B54206D8FEF77FFC31462846FFF7C1FF11
:102FE0001CE03CB143480068006808B9012000E0DB
:102FF00000200446A91B22464A480068FEF7BBF998
:10300000FEF769FC50B94FF0805048490860BFF3A3
:103010004F8FBFF36F8F01E0FEF75DFCF8BD0146F7
:10302000354A126812680AB9012200E000220A60DB
:103030000A6822B9304A1268D268106800E000209D
:10304000704708B500BF6846FFF7E9FF0446204611
:103050000099FFF7B1FFFFF702FFF4E710B500F0AA
:1030600051FB30480068D0B93148FDF705FB3148C5
:10307000FDF702FB2E48204908602E481D490860D4
:10308000002210210520FDF79DFB26490860084617
:10309000006820B128A123480068FEF746F900F037
:1030A00055FB10BD1CB50024FFF7D8FF1D48006874
:1030B00058B12348172100234FF48272CDE9001044
:1030C00020A12248FEF795FA044634B940F23313A2
:1030D0000AA20FA1124802F052FE20461CBD2DE9A3
:1030E000F04706460D4617469846DDE908947DB33D
:1030F00001202FE05400002050000020467265653A
:1031000052544F535C74696D6572732E63000000F6
:103110004572726F723A25732C25640D0A00000007
:1031200000380140580000206000002004ED00E05D
:10313000C0040020D4040020546D7251000000002F
:103140005C000020546D7220537663004330000809
:10315000FFE7002040B94FF4C673AFF26002AFF250
:103160005001754802F00BFE5CB1FFF777FF266057
:10317000A561E761C4F82080C4F82490201DFDF704
:1031800088FABDE8F0872DE9FC4705460E4617464C
:103190009846DDF828902C2000F035F904463CB123
:1031A00043463A4631462846CDE90094FFF797FF5B
:1031B0002046BDE8FC8710B56048006808B10120D2
:1031C00000E0002040B94FF4E873AFF2D002AFF254
:1031D000C001594802F0D3FD5848006810BD70B5D1
:1031E0000446254644B940F2D913AFF2F002AFF2DB
:1031F000E001514802F0C3FDA86970BD70B50446F6
:10320000254644B940F2E313AFF21012AFF20011B9
:10321000494802F0B4FD6E68304670BD70B5044692
:10322000254644B940F2ED13AFF23012AFF220114F
:10323000414802F0A4FD286870BD70B504462646DA
:1032400044B940F2DA33AFF24C12AFF23C113A48D3
:1032500002F095FD00F056FA706908B9012000E00F
:10326000002080F0010500F071FA284670BD70B5AD
:103270000446264644B940F2EF33AFF28012AFF273
:1032800070112D4802F07BFD00F03CFA356A00F029
:103290005DFA284670BD70B504460D46264644B911
:1032A00040F2FF33AFF2AC12AFF29C11224802F0B1
:1032B00066FD00F027FA356200F048FA70BD2DE98E
:1032C000FF4104460D4616461F466FF00100009070
:1032D00001940295039600233A466946184800680F
:1032E000FDF7E5FD8046404604B0BDE8F0812DE9DC
:1032F000FF4104460D4616461F461148006840B976
:1033000040F22B43AFF20C22AFF2FC110A4802F05C
:1033100036FD4FF0FF300090019402950396002394
:103320003A46694606480068FDF74AFB8046404633
:1033300004B0BDE8F0810000003801405C000020CE
:103340005800002010B50146944800E0006803686A
:103350008B42FBD30246436813448B4204D143683B
:103360004C682344436001460A464B681344046892
:10337000A34211D18A4C03682468A34208D04B6849
:103380000468646823444B6003681B680B6005E0B5
:10339000834B1B680B6001E003680B60884200D020
:1033A000016010BD30B54FF480437E4800F0070443
:1033B0002CB1C01D20F007007A4C041B1B1B0246D9
:1033C000764C22600024754D6C60D018083820F0CF
:1033D0000700734C20600024714D2D686C60704DA7
:1033E0002D682C601146441A4C606D4C24680C60AA
:1033F0006D4D4C682C606D4D4C682C604FF0004456
:103400006B4D2C6030BD2DE9F04104464FF00008B3
:10341000FEF70DFB6248006808B9FFF7C3FF644878
:1034200000682040002861D1ACB1083404F00700E6
:1034300088B104F00700C0F10800044404F007005C
:1034400008B9012000E0002028B9BF2359A262A1D9
:10345000654802F094FC002C48D05448006884422F
:1034600044D84E4E3046056801E02E462D68686807
:10347000A04202D228680028F7D149480068854256
:1034800034D0306800F10808286830606868001B94
:10349000102814D92F1907F0070008B9012000E0FF
:1034A000002028B9EC2343A24BA14F4802F067FC4F
:1034B0006868001B78606C603846FFF743FF3B4943
:1034C00068680968081A394908600846006836497A
:1034D0000968884203D23548006833490860344996
:1034E000686809680843686000202860FEF7F3F9FF
:1034F00008F0070008B9012000E0002030B94FF4BF
:1035000096732CA234A1384802F039FC4046BDE83D
:10351000F08170B506463546002E37D0083D2C4662
:10352000234960680968084008B1012000E00020D4
:1035300030B94FF4A0731FA227A12B4802F01FFC43
:10354000206808B9012000E0002030B940F24113A2
:1035500018A221A1244802F012FC154960680968EC
:10356000084098B1206888B91149606809688843A3
:103570006060FEF75CFA0D496068096808440B4911
:1035800008602046FFF7DEFEFEF7A5F970BD07488C
:103590000068704704480068704770476400002066
:1035A0006C000020E804002074000020700000205F
:1035B000780000204672656552544F535C706F72FC
:1035C0007461626C655C4D656D4D616E675C6865CC
:1035D00061705F342E6300004572726F723A25731A
:1035E0002C25640D0A00000000380140874800685F
:1035F000401C08B9012000E0002028B9F42384A26F
:103600008DA1914802F0BBFB00BF502080F31188D0
:10361000BFF34F8FBFF36F8F00BF00BFFEE7001FE8
:103620004FF080730360001F21F001030360001F4F
:10363000864B036014380260203870478448006865
:10364000C821B0FBF1F0401E4FF0E0214861072097
:10365000086170471CB57F48014609780191FF2138
:10366000024611700146097800919DF8001001F0A2
:103670005001794A11700721784A116009E07749B1
:103680000968491E754A11609DF800104906090E27
:1036900000919DF8001001F080018029EFD06F4962
:1036A000096809026D4A11601146098801F4E06158
:1036B0001160684A019911706948006840F470000F
:1036C000674908600846006840F070400860FFF7EE
:1036D000B5FF00204D490860FCF7E2FD00201CBD4D
:1036E00010B54A480068B0F57A7F01D1012000E0AA
:1036F000002030B94FF4B57345A24FA1524802F0F3
:103700003EFB10BD10B500BF502080F31188BFF301
:103710004F8FBFF36F8F00BF3C480068401C3B4990
:1037200008600846006801280FD14D481C38006821
:10373000C0B208B9012000E0002030B94FF4BD73D9
:1037400033A23DA1404802F01AFB10BD10B52F482E
:10375000006830B940F281132DA237A13A4802F037
:103760000EFB2A480068401E284908600846006889
:1037700020B9002080F3118800BF00BF10BD10B534
:1037800000BF502080F31188BFF34F8FBFF36F8FBE
:1037900000BFFDF7DDFF20B14FF0805030491C39EC
:1037A000086000BF002080F3118800BF10BD70B515
:1037B000FCF7ACFD0546102D12D305F1E02090F882
:1037C000F04325480078844201DB012000E000201E
:1037D00030B94FF42A730EA217A11B4802F0CFFA9A
:1037E0001F481438006800F4E0601C4909688842EA
:1037F00001D8012000E0002030B94FF42E7304A25C
:103800000DA1114802F0BBFA70BD00007C00002041
:103810004672656552544F535C706F727461626C8E
:10382000655C525644535C41524D5F434D335C706E
:103830006F72742E630000004572726F723A2573C6
:103840002C25640D0A00000000380140ED35000809
:103850000000002000E400E0800000208400002040
:1038600020ED00E031490143314A1160704770B5E5
:10387000002100230F22C47804B32D4C246804F4E3
:10388000E064C4F5E064210AC1F10403CA4044784D
:1038900004FA03F18478144021430901254C067889
:1038A000A155047804F01F050124AC4005786D1182
:1038B000AD0005F1E025C5F8004109E0047804F009
:1038C0001F050124AC401C4D0678761145F82640B2
:1038D00070BD1A4A0A400243154B1B1F1A607047FD
:1038E00039B1134A121D12680243114B1B1D1A6095
:1038F00006E00F4A121D126882430D4B1B1D1A6011
:103900007047042808D14FF0E021096941F0040113
:103910004FF0E022116107E04FF0E021096921F04A
:1039200004014FF0E0221161704700000000FA0529
:103930000CED00E000E400E080E100E080FFFF1F0C
:1039400010B50446CC48844208D10121042000F07F
:103950002DFB0021042000F029FB46E0C7488442EB
:1039600008D10121082000F021FB0021082000F0EF
:103970001DFB3AE0C248844208D10121102000F02A
:1039800015FB0021102000F011FB2EE0BD48844201
:1039900008D10121202000F009FB0021202000F0A7
:1039A00005FB22E0B848844208D10121402000F004
:1039B000FDFA0021402000F0F9FA16E0B3488442F5
:1039C00008D10121802000F0F1FA0021802000F0D0
:1039D000EDFA0AE0AE48844207D10121801500F0DB
:1039E000E5FA0021A01500F0E1FA10BD10B50121A3
:1039F000084600F0DBFA0021012000F0D7FA10BDE4
:103A00002DE9F04102460025002600200023002475
:103A1000002791F803C00CF00F0591F803C00CF0DB
:103A2000100CBCF1000F03D091F802C04CEA050560
:103A300091F800C0BCF1000F31D0146800202BE0D9
:103A40004FF0010C0CFA00F3B1F800C00CEA0306C9
:103A50009E4220D183004FF00F0C0CFA03F7BC43B9
:103A600005FA03FC4CEA040491F803C0BCF1280FEA
:103A700006D14FF0010C0CFA00FCC2F814C00AE0A9
:103A800091F803C0BCF1480F05D14FF0010C0CFABE
:103A900000FCC2F810C0401C0828D1D31460B1F853
:103AA00000C0BCF1FF0F34DD546800202EE000F1AF
:103AB000080C4FF0010808FA0CF3B1F800C00CEA4A
:103AC00003069E4221D183004FF00F0C0CFA03F73E
:103AD000BC4305FA03FC4CEA040491F803C0BCF1B2
:103AE000280F05D100F1080C08FA0CF8C2F8148070
:103AF00091F803C0BCF1480F07D100F1080C4FF05A
:103B0000010808FA0CF8C2F81080401C0828CED32F
:103B10005460BDE8F0814FF6FF7101800221817091
:103B20000421C17070470246002093680B400BB11E
:103B3000012000E0002070470146886880B270478D
:103B400002460020D3680B400BB1012000E00020AA
:103B500070470146C86880B2704701617047416193
:103B600070470AB1016100E041617047C160704770
:103B70004FF480320A438261816182618269826985
:103B8000704702460020434B18684FF68073184078
:103B900040EA021008433F4B186070473E49C86135
:103BA0007047F0B50A46002300240021002500F0EC
:103BB0000046B6F1004F02D1364EF16901E0354EB4
:103BC0007168C0F3034583B200F44016B6F5401F98
:103BD00008D121F070612F4E766826F070662D4F67
:103BE0007E6012E000F48016B6F5801F06D1032631
:103BF00006FA05F4A14341F0706106E0460D360176
:103C000003FA06F6B14341F0706122B1460D360168
:103C100003FA06F6314300F00046B6F1004F02D138
:103C20001C4EF16101E01B4E7160F0BD30B5002209
:103C30008B071C0F0F2303FA04F2164B08338C106A
:103C400053F824309343134C08348D1044F8253036
:103C500023468C1053F824308C07240F00FA04F408
:103C600023430C4C08348D1044F8253030BD0A49EC
:103C7000DC3108607047000000080140000C014082
:103C8000001001400014014000180140001C0140D8
:103C9000002001400000014000002042DF48006891
:103CA00040F00100DD49086008464068DC490840F2
:103CB000DA49486008460068DA490840D749086090
:103CC0000846006820F4802008600846406820F418
:103CD000FE0048604FF41F0088607047CF490968B4
:103CE00021F48031CD4A11601146096821F4802108
:103CF0001160B0F5803F03D0B0F5802F0ED106E003
:103D0000C649096841F48031C44A116007E0C349DB
:103D1000096841F4A021C14A116000E000BF00BF62
:103D2000704710B501460022002300204A11012AE5
:103D300002D1BA4C236806E0022A02D1B74C236AAA
:103D400001E0B64C636A01F01F02012494401C405C
:103D50000CB1012000E0002010BD38B5002000901B
:103D60000024002500BF3120FFF7DBFF0546009847
:103D7000401C00900098B0F5A06F01D0002DF2D04B
:103D80003120FFF7CEFF08B1012400E000242046D7
:103D900038BD01460020A14A106820F0F80040EA32
:103DA000C10010607047A0490860704702460020BB
:103DB0009A4B586820F47C1042EA01031843974B51
:103DC0005860704798490866704701460020934A3A
:103DD000506820F003000843506070478F484068E7
:103DE00000F00C007047014600208C4A506820F01B
:103DF000F00008435060704701460020874A506831
:103E000020F4E06008435060704701460020834A78
:103E1000506820F4605040EAC1005060704729B1FA
:103E20007E4A527A02437D4B5A7204E07B4A527AB0
:103E300082437A4B5A7270477B49D8310860704789
:103E400001460020754A506820F440400843506005
:103E500070470021714A20321170704A82F8201098
:103E6000012802D004280AD104E001216B4A203243
:103E7000117005E00521694A2032117000E000BF91
:103E800000BF70476949086070476449096A014387
:103E9000624A11627047654944390860704730B51D
:103EA00000210022002400235C4D6D6805F00C0108
:103EB00021B1042905D0082923D105E05C4D056016
:103EC00022E05C4D05601FE0544D6D6805F47012F2
:103ED000524D6D6805F48034022505EB92421CB901
:103EE000554D554305600BE04C4D6D6805F40035AC
:103EF0001DB1524D5543056002E04E4D55430560DE
:103F000002E04B4D056000BF00BF444D6D6805F0F9
:103F1000F00109094A4D6B5C0568DD4045603F4D85
:103F20006D6805F4E061090A454D6B5C4568DD404C
:103F300085603A4D6D6805F46051C90A404D6B5C6F
:103F40004568DD40C560354D6D6805F44041890B1D
:103F50003C4D6B5CC568B5FBF3F5056130BD29B11F
:103F60002E4A526902432D4B5A6104E02B4A526992
:103F700082432A4B5A61704729B1284A9269024309
:103F8000264B9A6104E0254A92698243234B9A6149
:103F9000704729B1214AD2690243204BDA6104E01B
:103FA0001E4AD26982431D4BDA61704729B11B4A10
:103FB000D2680243194BDA6004E0184AD26882439F
:103FC000164BDA60704729B1144A12690243134B49
:103FD0001A6104E0114A12698243104B1A6170475A
:103FE00012494039086070470F49C86470470B494F
:103FF000C87170470948406A40F0807007494862BC
:10400000704701460020054A92680A400AB1012023
:1040100000E000207047014988727047001002409C
:104020000000FFF8FFFFF6FE00004242800442421B
:1040300000127A00001BB70000093D00808D5B0074
:10404000880000209800002010B50446FB488442F8
:1040500009D101218803FFF7A9FF00214FF4804017
:10406000FFF7A4FF32E0F648844209D10121480459
:10407000FFF7A9FF00214FF40030FFF7A4FF25E070
:10408000F048844209D101218804FFF79CFF0021F8
:104090004FF48020FFF797FF18E0EB48844209D1E6
:1040A0000121C804FFF78FFF00214FF40020FFF724
:1040B0008AFF0BE0E548844208D101210805FFF79B
:1040C00082FF00214FF48010FFF77DFF10BD2DE926
:1040D000F04786B005460E460024A24600BFA14622
:1040E0000027B08900B100BF2F462C8A4CF6FF7024
:1040F0000440F08804432C82AC894EF6F31004404F
:10410000B08831890843718908430443AC81AC8A83
:104110004FF6FF400440B0890443AC8201A8FFF78A
:10412000BEFEC648874202D1DDF810A001E0DDF8EE
:104130000CA0A88900F4004040B10AEBCA0000EBD3
:104140000A1031684900B0FBF1F807E00AEBCA0039
:1041500000EB0A1031688900B0FBF1F86420B8FB6D
:10416000F0F004012009642101FB1089A88900F402
:10417000004040B1322000EBC900B0FBF1F000F08C
:104180000700044308E0322000EB09106421B0FB73
:10419000F1F000F00F0004432C8106B0BDE8F08779
:1041A0004FF41651016000218180C18001810C21F2
:1041B000418100218181704710B502460020108A9C
:1041C0004FF2FF0318400B884C8823438C8823430D
:1041D000CC8823431843108210BD00210180418008
:1041E0008180C180704721B1828942F4005282816E
:1041F00004E082894DF6FF731A4082817047F0B562
:104200000346002400260025002040F66A17B94224
:1042100000D100BF1846C1F3421401F01F06012768
:1042200007FA06F5012C01D10C3004E0022C01D173
:10423000103000E014301AB107682F43076002E025
:104240000768AF430760F0BD1AB1838A0B438382CE
:1042500002E0838A8B4383827047028A4FF6F073B1
:104260001A400282028A0A430282704782894FF210
:10427000FF731A40828182890A438281704721B18B
:10428000828942F00202828104E082894FF6FD7346
:104290001A4082817047028A4FF6DF731A40028209
:1042A000028A0A430282704721B1028A42F48042A4
:1042B000028204E0028A4BF6FF731A4002827047C2
:1042C000C1F308028280704701468888C0F3080065
:1042D0007047818941F0010181817047028BD2B220
:1042E0000283028B42EA012202837047028B02F4AE
:1042F0007F420283028B0A430283704721B1828A84
:1043000042F02002828204E0828A4FF6DF731A4074
:104310008282704721B1828A42F01002828204E0D8
:10432000828A4FF6EF731A408282704721B1828AE7
:1043300042F00802828204E0828A4FF6F7731A4044
:104340008282704721B1828942F40042828103E077
:104350008289C2F30E028281704721B1828A42F4BF
:104360000062828204E0828A4FF2FF731A408282E6
:104370007047828A4FF6FB731A408282828A0A4310
:104380008282704721B1828A42F00202828204E076
:10439000828A4FF6FD731A408282704702460020DF
:1043A000B1F5007F00D100BF13880B400BB1012095
:1043B00000E00020704701F40072B2F5007F00D1E8
:1043C00000BFCA430280704770B502460024002334
:1043D0000025002040F66A16B14200D100BFC1F3AB
:1043E000421501F01F03012606FA03F3012D02D145
:1043F0009689334006E0022D02D1168A334001E04F
:10440000968A33400C12012606FA04F416883440CA
:1044100013B10CB1012000E0002070BD10B50022E6
:10442000002340F66A14A14200D100BF0A12012401
:104430009440A3B2DC43048010BD0000003801406A
:104440000044004000480040004C00400050004044
:1044500010B50446FE48844208D10121C014FFF77C
:10446000A5FD0021E014FFF7A1FDC4E0B4F1804FE9
:1044700008D101210846FFF7A6FD00210120FFF722
:10448000A2FDB8E0F348844208D101210220FFF7E1
:104490009AFD00210220FFF796FDACE0EE48844231
:1044A00008D101210420FFF78EFD00210420FFF731
:1044B0008AFDA0E0E948844208D101210820FFF7E5
:1044C00082FD00210820FFF77EFD94E0E44884424D
:1044D00008D101211020FFF776FD00211020FFF701
:1044E00072FD88E0DF48844208D101212020FFF7D7
:1044F0006AFD00212020FFF766FD7CE0DA48844257
:1045000008D101214014FFF751FD00216014FFF78D
:104510004DFD70E0D548844209D10121C804FFF760
:1045200045FD00214FF40020FFF740FD63E0D04837
:10453000844209D101210805FFF738FD00214FF41D
:104540008010FFF733FD56E0CA48844209D10121AB
:104550004805FFF72BFD00214FF40010FFF726FD63
:1045600049E0C548844208D101214020FFF72BFDD6
:1045700000214020FFF727FD3DE0C048844208D1DC
:1045800001218020FFF71FFD00218020FFF71BFD88
:1045900031E0BB48844208D101218015FFF713FDAB
:1045A0000021A015FFF70FFD25E0B648844209D190
:1045B00001210804FFF7FAFC00214FF48030FFF7D7
:1045C000F5FC18E0B048844209D101214804FFF706
:1045D000EDFC00214FF40030FFF7E8FC0BE0AB48A6
:1045E000844208D101218804FFF7E0FC00214FF448
:1045F0008020FFF7DBFC10BD00220288944B98421C
:104600000ED0994B98420BD0B0F1804F08D0914B0F
:10461000984205D0904B984202D0904B984204D1DA
:104620004FF68F731A404B881A438D4B984207D030
:104630008C4B984204D04FF6FF431A40CB881A4364
:1046400002808B8883850B880385814B98420BD031
:10465000854B984208D08B4B984205D08A4B9842A4
:1046600002D08A4B984201D10B7A038601238382C0
:10467000704770B5002400220023058C4FF6FE76AB
:1046800035400584028C8388048B4FF68F752C404F
:10469000B51E2C400D882C43751E2A400D892A43D7
:1046A0004D882A436A4DA8420BD06F4DA84208D0CE
:1046B000744DA84205D0744DA84202D0734DA84253
:1046C00013D14FF6F7752A404D892A434FF6FB75F3
:1046D0002A408D882A434FF6FF652B404FF6FF5541
:1046E0002B408D892B43CD892B4383800483CD8838
:1046F0008586028470BD70B5002400220023058CDD
:104700004FF6EF7635400584028C8388048B48F69B
:10471000FF752C404FF6FF452C400D884FF6FF7675
:1047200006EA05252C434FF6DF752A400D8906EA77
:1047300005152A434D8806EA05152A43444DA8422B
:1047400002D0494DA8421DD14FF67F752A404D89B0
:104750004FF6FF7606EA05152A434FF6BF752A4045
:104760008D8806EA05152A434FF6FF352B404FF298
:10477000FF752B408D8906EA85052B43CD8906EA16
:1047800085052B4383800483CD880587028470BD13
:1047900070B5002400220023058C4FF6FF663540DB
:1047A0000584028C8388848B4FF68F752C404FF6DE
:1047B000FC752C400D882C434FF6FF552A400D897F
:1047C0004FF6FF7606EA05252A434D8806EA0525B9
:1047D0002A431F4DA84202D0234DA8421DD14FF2BB
:1047E000FF752A404D894FF6FF7606EA05252A43D4
:1047F0004FF6FF352A408D8806EA05252A434EF6F6
:10480000FF752B404DF6FF752B408D8906EA051587
:104810002B43CD8906EA05152B4383808483CD88FD
:104820008587028470BD70B5002200230024058CAA
:104830004EF6FF7635400584038C8488828B48F6DB
:10484000FF752A404FF6FF452A400D8820E0000002
:10485000002C01400004004000080040000C004013
:10486000001000400014004000340140004C0140A2
:10487000005001400054014000180040001C00405E
:104880000020004000400140004401400048014039
:104890004FF6FF7606EA05252A434DF6FF752B40B5
:1048A0000D8906EA05352B434D8806EA05352B436D
:1048B000FA4DA84202D0FA4DA84208D14BF6FF7536
:1048C0002C408D894FF6FF7606EA85152C438480AF
:1048D0008283CD88A0F84050038470BD828B4FF254
:1048E000FF331A408283828B4FF6FF7303EA012362
:1048F0001A4382837047F0B50C461546002200210A
:104900000026078C4EF6FF7C07EA0C070784828B93
:10491000018C4FF6FF7707EA043640F6FF473A402E
:104920004FF6FF7707EA05273A434FF6FF7707EA86
:1049300003373A43D94FB8420ED0D94FB8420BD0C3
:10494000B0F1804F08D0D74FB84205D0D64FB8420B
:1049500002D0D64FB84206D14DF6FF77394046F423
:104960008057394305E047F6FF57394044F48057F4
:10497000394382830184F0BD828B4FF6F3731A4072
:104980008283828B0A4382837047F0B50C461546BA
:10499000002200210026078C4FF6FF6C07EA0C0767
:1049A0000784828B018C4FF6FF7707EA04264FF6C7
:1049B0000C773A404FF6FF7707EA03172F433A4345
:1049C000B64FB8420ED0B64FB8420BD0B0F1804FC0
:1049D00008D0B44FB84205D0B34FB84202D0B34F5D
:1049E000B84206D14FF6FF57394046F48077394335
:1049F00005E04FF2FF57394044F480773943828312
:104A00000184F0BD028B4FF2FF331A400283028B08
:104A10004FF6FF7303EA01231A4302837047F0B590
:104A20000C461546002200210026078C4FF6EF7C2D
:104A300007EA0C070784028B018C4FF6FF7707EA21
:104A4000041640F6FF473A404FF6FF7707EA033770
:104A50003A434FF6FF7707EA05273A438F4FB842AC
:104A60000ED08F4FB8420BD0B0F1804F08D08D4F91
:104A7000B84205D08C4FB84202D08C4FB84206D114
:104A80004FF6DF77394046F01007394305E04FF61F
:104A90005F77394044F01007394302830184F0BD49
:104AA000028B4FF6F3731A400283028B0A43028390
:104AB0007047F0B50C46154600220021068C4FF6D3
:104AC000FE773E400684028B018C4FF60C76324016
:104AD0007E1C06EA03162E433243704EB0420ED0BF
:104AE0006F4EB0420BD0B0F1804F08D06D4EB04247
:104AF00005D06D4EB04202D06C4EB04206D14FF69A
:104B0000FD76314044F00106314305E04FF6F5767D
:104B1000314044F00106314302830184F0BD70B599
:104B200005460C465D4885420ED05D4885420BD057
:104B3000B5F1804F08D05B48854205D05A48854280
:104B400002D05A48854200D100E000BF208850B909
:104B50002389A28861882846FFF7ABFFE1882846B1
:104B6000FFF79EFF25E0208804280AD12389A28828
:104B700061882846FFF753FFE1882846FFF742FF88
:104B800017E0208808280AD12389A288618828464E
:104B9000FFF7FBFEE1882846FFF7EEFE09E02389D8
:104BA000A28861882846FFF7A6FEE1882846FFF71D
:104BB00095FE70BD2DE9F04105460C460026012703
:104BC000608808B9022600E00026A088012801D1EB
:104BD000022700E001272088A0B92389A2886188E4
:104BE0002846FFF766FFE1882846FFF759FF23892B
:104BF0003A4631462846FFF712FFE1882846FFF77C
:104C000001FF13E02389A28861882846FFF707FF88
:104C1000E1882846FFF7F6FE23893A4631462846C2
:104C2000FFF747FFE1882846FFF73AFFBDE8F0812C
:104C30000A884B881A438B881A43CB881A430B89FE
:104C40001A434B891A438B891A43A0F844207047B2
:104C50004FF6FF71818000210180C1804180017287
:104C600070470021018041808180C18001814181A4
:104C70008181C181704700210180418001218180B3
:104C80000021C18001817047002101804180818025
:104C9000C18001814181818170470000002C014069
:104CA000003401400004004000080040000C0040B7
:104CB00021B1028842F00102028004E002884FF62E
:104CC000FE731A400280704731B1B0F8442042F4BC
:104CD0000042A0F8442005E0B0F84420C2F30E02E0
:104CE000A0F8442070471AB183890B43838102E006
:104CF00083898B43838170478182704741EA020335
:104D0000A0F8483070471AB183890B43838102E0D1
:104D100083898B438381704701894FF6F872114074
:104D2000018170470A46002101894FF68F731940AF
:104D300011430181704730B504460D46294620468F
:104D4000FFF7F0FF208940F00700208130BD2DE9FA
:104D5000F04104460D4616461F46602D06D13B46DF
:104D6000012231462046FFF75AFE05E03B4601226C
:104D700031462046FFF79DFE29462046FFF7D2FF29
:104D8000208940F007002081BDE8F08130B50C4655
:104D900000210189C9B24FF6FF7505EA03251543C5
:104DA00025432943018130BD2DE9F04105460E46DA
:104DB00017469846002443463A4631462846FFF7B0
:104DC000E5FF2C894FF6F870044044F007044FF6D5
:104DD0008F70044044F070042C81BDE8F081F0B580
:104DE00004460D4616461F463B4632462946204697
:104DF000FFF7CCFF208940F480402081F0BD018581
:104E0000828270470A46002101884FF68F7319404D
:104E1000114301807047F0B50C4615461E4600212F
:104E2000002200230189028B038C4FF6F87739406A
:104E300021434FF6FC473A4040F201173A434FF600
:104E4000DD773B404FF6FF7707EA06172F433B43DA
:104E5000018102830384F0BD0A460021018B4FF6D5
:104E60008F7319401143018370470A460021018B5B
:104E700048F6FF7319404FF6FF7303EA0223194304
:104E8000018370470A460021818B4FF68F731940CA
:104E90001143818370470A460021818B48F6FF73D6
:104EA00019404FF6FF7303EA0223194381837047C9
:104EB00021B1028842F08002028004E002884FF6AD
:104EC0007F731A400280704721B1828842F0040249
:104ED000828004E082884FF6FB731A40828070471C
:104EE00021B1828842F00802828004E082884FF675
:104EF000F7731A408280704721B1828842F0010224
:104F0000828004E082884FF6FE731A4082807047E8
:104F10000A460021018B4FF6F773194011430183B4
:104F200070470A460021018B4FF2FF7319404FF67C
:104F3000FF7303EA02231943018370470A460021E5
:104F4000818B4FF6F77319401143818370470A46EE
:104F50000021818B4FF2FF7319404FF6FF7303EA74
:104F600002231943818370470A460021018B4FF6C3
:104F7000FB7319401143018370470A460021018BDE
:104F80004FF6FF3319404FF6FF7303EA022319432C
:104F9000018370470A460021818B4FF6FB7319404D
:104FA0001143818370470A460021818B4FF6FF33FE
:104FB00019404FF6FF7303EA0223194381837047B8
:104FC0000A460021018B4FF67F731940114301837C
:104FD00070470A460021018BC1F30E014FF6FF73A3
:104FE00003EA02231943018370470A460021818B9B
:104FF0004FF67F7319401143818370470A460021A1
:10500000818BC1F30E014FF6FF7303EA02231943AC
:10501000818370470A460021018C4FF6FD731940C9
:105020001143018470470A460021018C4FF6F77343
:1050300019401143018470470A460021018C4FF644
:10504000DF7319404FF6FF7303EA0213194301841B
:1050500070470A460021018C4FF67F7319404FF6C6
:10506000FF7303EA02131943018470470A460021C3
:10507000018C4FF6FF5319404FF6FF7303EA0223EA
:105080001943018470470A460021018C4FF2FF73D7
:1050900019404FF6FF7303EA022319430184704756
:1050A0000A460021018C4DF6FF7319404FF6FF733D
:1050B00003EA023319430184704730B50023012409
:1050C0008C40A3B2048C9C430484048C02FA01F546
:1050D000ADB22C43048430BD30B5002304248C4091
:1050E000A3B2048C9C430484048C02FA01F5ADB293
:1050F0002C43048430BD70B50346002000241846BC
:10510000183001258D40ACB21D8CA5431D8409B11A
:10511000082909D100EB6100056825F070050560DC
:105120000568154305600EE00D1FC5F34E052844C4
:10513000056825F4E045056005684FF6FF7606EA48
:1051400002263543056070BD21B1028842F002029B
:10515000028004E002884FF6FD731A400280704717
:1051600021B1028842F00402028004E002884FF676
:10517000FB731A400280704721B1828842F080029E
:10518000828004E082884FF67F731A4082807047E5
:1051900002884FF6F7731A40028002880A430280A1
:1051A000704782884FF68F731A40828082880A4344
:1051B0008280704702894FF6F8731A400281028993
:1051C0000A430281704702894FF67F731A400281B9
:1051D00002890A4302817047818470478185704744
:1051E000818670470187704781877047A0F840101B
:1051F000704702884FF6FF431A40028002880A4334
:10520000028070470146888E70470146088F7047BC
:105210000146888F70470146B1F84000704701464B
:10522000888C70470146088D704702460020138A1B
:105230000B400BB1012000E000207047CA430282FE
:10524000704730B50246002000230024158A05EA85
:105250000103958905EA010413B10CB1012000E0B6
:10526000002030BDCA430282704700000E4908602A
:1052700070470D49486070470B49886070474AF68F
:10528000AA200949086070474CF6CC4006490860DE
:10529000704701460020044AD2680A400AB1012042
:1052A00000E00020704700000030004010B50446C8
:1052B000FA48844208D101214015FEF777FE00210B
:1052C0006015FEF773FE17E0F548844208D101210E
:1052D0000015FEF76BFE00212015FEF767FE0BE0C0
:1052E000F048844208D10121C803FEF75FFE002187
:1052F0004FF40040FEF75AFE10BD30B502460020C4
:1053000000235068E84C20400D790C6844EA0524DD
:10531000204350609068E54C2040D1E902542C4372
:105320004D7944EA450420439060D06A20F470002F
:105330000C7C641EE4B2234340EA0350D06230BDCB
:1053400000210160017141718160C160012101741E
:10535000704721B1826842F00102826003E08268F6
:1053600022F001028260704721B1826842F48072AB
:10537000826003E0826822F480728260704710B518
:105380000023CBB21AB144681C43446002E0446875
:105390009C43446010BD816841F008018160704702
:1053A000014600208A6802F008020AB1012000E0EC
:1053B00000207047816841F0040181607047014618
:1053C00000208A6802F004020AB1012000E00020F7
:1053D000704721B1826842F4A002826003E08268D3
:1053E00022F4A00282607047014600208A6802F41D
:1053F00080020AB1012000E00020704710B50A4683
:1054000000210023416821F46041531E41EA4331E9
:10541000416010BD21B1426842F40062426003E085
:10542000426822F4006242607047F0B504460D46BF
:1054300000200021092D11DDE068A5F10A0606EB28
:105440004607072606FA07F18843A5F10A0606EB88
:10545000460603FA06F10843E0600CE0206905EB1C
:105460004507072606FA07F1884305EB450603FAC8
:1054700006F108432061072A0FDA606B561E06EB1F
:1054800086071F2606FA07F18843561E06EB860696
:1054900005FA06F10843606322E00D2A0FDA206B5B
:1054A000D61F06EB86071F2606FA07F18843D61F8C
:1054B00006EB860605FA06F10843206310E0E06A71
:1054C000A2F10D0606EB86071F2606FA07F18843B0
:1054D000A2F10D0606EB860605FA06F10843E06226
:1054E000F0BD21B1826842F48012826003E08268DC
:1054F00022F48012826070470146C86C80B2704707
:1055000066484C300068704721B1426842F48062BE
:10551000426003E0426822F480624260704721B139
:10552000426842F48052426003E0426822F48052B2
:10553000426070470A460021816821F4E04111432E
:105540008160704721B1826842F40042826003E0CA
:10555000826822F400428260704721B1826842F47E
:105560000212826003E0826822F4021282607047B5
:10557000014600208A6802F400120AB1012000E00E
:1055800000207047F0B50446154600200022002692
:10559000092911DDE068A1F10A0707EB470C07278D
:1055A00007FA0CF29043A1F10A0707EB470703FA49
:1055B00007F21043E0600CE0206901EB410C072783
:1055C00007FA0CF2904301EB410703FA07F210438C
:1055D0002061A06BC0F30156EF1C06F1010CA7EB94
:1055E0000C0707EB870C1F2707FA0CF29043EF1C00
:1055F00006F1010CA7EB0C0707EB870701FA07F28E
:105600001043A063F0BD10B50A4600210023816B52
:1056100021F44011531E41EA0351816310BD08B5C6
:10562000002300930090009B0B440093009B1A60A2
:1056300008BD08B5024600200090009201F1280044
:10564000009B184400900098006880B208BD0A468C
:1056500000214168164B1940114341607047416277
:10566000826270470A460021416821F01F01114300
:105670004160704740B109490831096841F40001AF
:10568000064A0832116007E004490831096821F42C
:105690000001024A083211607047000000240140F6
:1056A00000280140003C0140FFFEF0FFFDF7F1FF44
:1056B000FFFD3FFF0246002013680B400BB10120A5
:1056C00000E000207047CA430260704770B5024690
:1056D0000020002300240B125568CEB205EA060410
:1056E00015681D4015B10CB1012000E0002070BD0F
:1056F00000220A12D34303607047000001684FF68E
:10570000FE72114001600021016041608160C16052
:105710008D49884208D18C490839496841F00F0108
:10572000894A083A51608AE087491431884208D191
:1057300085490839496841F0F001834A083A5160C7
:105740007DE081492831884208D17F49083949687C
:1057500041F470617C4A083A516070E07A493C310A
:10576000884208D178490839496841F47041764A3D
:10577000083A516063E074495031884208D1724957
:105780000839496841F470216F4A083A516056E07F
:105790006D496431884208D16B490839496841F440
:1057A0007001694A083A516049E067497831884296
:1057B00008D165490839496841F07061624A083A80
:1057C00051603CE06149884206D1011F096841F0FF
:1057D0000F01021F116032E05C491431884208D188
:1057E0005A49091F096841F0F001584A121F116017
:1057F00025E056492831884208D15449091F0968D3
:1058000041F47061514A121F116018E04F493C3158
:10581000884208D14D49091F096841F470414B4A3B
:10582000121F11600BE049495031884207D14749A6
:10583000091F096841F47021444A121F1160704722
:1058400010B50022026847F6F0739A430C6A8B6821
:1058500023430C6923434C6923438C692343CC695C
:1058600023434C6A23438C6A23431A430260CB6868
:1058700043600B6883604B68C36010BD002101600A
:1058800041608160C160016141618161C16101620A
:1058900041628162704721B1026842F001020260F8
:1058A00004E002684FF6FE731A40026070471AB1B6
:1058B00003680B43036002E003688B430360704797
:1058C000416070470146486880B270470146002039
:1058D000002201F080531BB11C4B083B1A6802E008
:1058E000194B083B1A6802EA01030BB1012000E0E2
:1058F0000020704700F0805119B11449091F086059
:1059000002E0114908394860704701460020002232
:1059100001F080531BB10D4B083B1A6802E00A4BA3
:10592000083B1A6802EA01030BB1012000E00020E5
:10593000704700F0805119B10449091F086002E066
:1059400001490839486070470800024008040240D5
:1059500010B50446012C01D0012000E000200246D1
:105960004FF480514C48FEF7FCF80CB1012000E0E8
:1059700000204A49487110BD10B50446012C01D0E1
:10598000012000E0002002464FF400614248FEF78B
:10599000E8F80CB1012000E000204049087110BD7A
:1059A00010B50446012C01D0012000E00020024681
:1059B0004FF400713A48FEF7D4F80CB1012000E032
:1059C00000203649C87010BD10B50446012C01D026
:1059D000012000E0002002464FF480713048FEF7BD
:1059E000C0F80CB1012000E000202C49887010BDE7
:1059F00010B50446012C01D0012000E00020024631
:105A000080212748FEF7ADF80CB1012000E000200E
:105A10002249487010BD10B50446012C01D0012068
:105A200000E00020024640211D48FEF79AF80CB124
:105A3000012000E000201949087010BD08B50121BF
:105A40000C20FEF799FA10208DF803004FF47070C7
:105A5000ADF8000003208DF8020069461048FDF7FC
:105A6000CFFF4FF4C050ADF8000069460A48FDF77B
:105A7000C7FF0020FFF7CFFF0020FFF7B9FF00208E
:105A8000FFF7A2FF0020FFF78BFF0120FFF774FF55
:105A90000120FFF75DFF08BD000801409C000020C9
:105AA000000C014010B50420FDF72BFF50480068A2
:105AB0005049B0FBF1F0504908704D4800684D491D
:105AC000B0FBF1F441F28830444305204B49088093
:105AD0004FF0E020006940F002004FF0E021086143
